{
  "contractName": "AuctionSystem",
  "abi": [
    {
      "anonymous": false,
      "inputs": [
        {
          "indexed": false,
          "internalType": "uint256",
          "name": "auctionId",
          "type": "uint256"
        },
        {
          "indexed": false,
          "internalType": "string",
          "name": "title",
          "type": "string"
        },
        {
          "indexed": false,
          "internalType": "uint256",
          "name": "startPrice",
          "type": "uint256"
        }
      ],
      "name": "AuctionCreated",
      "type": "event"
    },
    {
      "anonymous": false,
      "inputs": [
        {
          "indexed": false,
          "internalType": "uint256",
          "name": "auctionId",
          "type": "uint256"
        },
        {
          "indexed": false,
          "internalType": "address",
          "name": "bidder",
          "type": "address"
        },
        {
          "indexed": false,
          "internalType": "uint256",
          "name": "amount",
          "type": "uint256"
        },
        {
          "indexed": false,
          "internalType": "uint256",
          "name": "time",
          "type": "uint256"
        }
      ],
      "name": "NewBid",
      "type": "event"
    },
    {
      "inputs": [],
      "name": "auctionCount",
      "outputs": [
        {
          "internalType": "uint256",
          "name": "",
          "type": "uint256"
        }
      ],
      "stateMutability": "view",
      "type": "function",
      "constant": true
    },
    {
      "inputs": [
        {
          "internalType": "uint256",
          "name": "",
          "type": "uint256"
        }
      ],
      "name": "auctions",
      "outputs": [
        {
          "internalType": "uint256",
          "name": "id",
          "type": "uint256"
        },
        {
          "internalType": "string",
          "name": "title",
          "type": "string"
        },
        {
          "internalType": "string",
          "name": "description",
          "type": "string"
        },
        {
          "internalType": "string",
          "name": "imageUrl",
          "type": "string"
        },
        {
          "internalType": "uint256",
          "name": "currentBid",
          "type": "uint256"
        },
        {
          "internalType": "address payable",
          "name": "highestBidder",
          "type": "address"
        },
        {
          "internalType": "uint256",
          "name": "endTime",
          "type": "uint256"
        },
        {
          "internalType": "bool",
          "name": "ended",
          "type": "bool"
        },
        {
          "internalType": "address payable",
          "name": "creator",
          "type": "address"
        }
      ],
      "stateMutability": "view",
      "type": "function",
      "constant": true
    },
    {
      "inputs": [
        {
          "internalType": "string",
          "name": "_title",
          "type": "string"
        },
        {
          "internalType": "string",
          "name": "_description",
          "type": "string"
        },
        {
          "internalType": "string",
          "name": "_imageUrl",
          "type": "string"
        },
        {
          "internalType": "uint256",
          "name": "_startPrice",
          "type": "uint256"
        },
        {
          "internalType": "uint256",
          "name": "_durationInSeconds",
          "type": "uint256"
        }
      ],
      "name": "createAuction",
      "outputs": [],
      "stateMutability": "nonpayable",
      "type": "function"
    },
    {
      "inputs": [
        {
          "internalType": "uint256",
          "name": "_auctionId",
          "type": "uint256"
        }
      ],
      "name": "placeBid",
      "outputs": [],
      "stateMutability": "payable",
      "type": "function",
      "payable": true
    },
    {
      "inputs": [],
      "name": "getCount",
      "outputs": [
        {
          "internalType": "uint256",
          "name": "",
          "type": "uint256"
        }
      ],
      "stateMutability": "view",
      "type": "function",
      "constant": true
    }
  ],
  "bytecode": "0x608060405234801561001057600080fd5b506110d6806100206000396000f3fe60806040526004361061004a5760003560e01c80632ad715731461004f578063571a26a01461007a57806358574dca146100bf5780639979ef45146100e8578063a87d942c14610104575b600080fd5b34801561005b57600080fd5b5061006461012f565b6040516100719190610781565b60405180910390f35b34801561008657600080fd5b506100a1600480360381019061009c91906107dc565b610135565b6040516100b6999897969594939291906108f5565b60405180910390f35b3480156100cb57600080fd5b506100e660048036038101906100e19190610acc565b610368565b005b61010260048036038101906100fd91906107dc565b610567565b005b34801561011057600080fd5b5061011961075e565b6040516101269190610781565b60405180910390f35b60015481565b600060205280600052604060002060009150905080600001549080600101805461015e90610bca565b80601f016020809104026020016040519081016040528092919081815260200182805461018a90610bca565b80156101d75780601f106101ac576101008083540402835291602001916101d7565b820191906000526020600020905b8154815290600101906020018083116101ba57829003601f168201915b5050505050908060020180546101ec90610bca565b80601f016020809104026020016040519081016040528092919081815260200182805461021890610bca565b80156102655780601f1061023a57610100808354040283529160200191610265565b820191906000526020600020905b81548152906001019060200180831161024857829003601f168201915b50505050509080600301805461027a90610bca565b80601f01602080910402602001604051908101604052809291908181526020018280546102a690610bca565b80156102f35780601f106102c8576101008083540402835291602001916102f3565b820191906000526020600020905b8154815290600101906020018083116102d657829003601f168201915b5050505050908060040154908060050160009054906101000a900473ffffffffffffffffffffffffffffffffffffffff16908060060154908060070160009054906101000a900460ff16908060070160019054906101000a900473ffffffffffffffffffffffffffffffffffffffff16905089565b6001600081548092919061037b90610c2a565b91905055506040518061012001604052806001548152602001868152602001858152602001848152602001838152602001600073ffffffffffffffffffffffffffffffffffffffff16815260200182426103d59190610c72565b81526020016000151581526020013373ffffffffffffffffffffffffffffffffffffffff1681525060008060015481526020019081526020016000206000820151816000015560208201518160010190816104309190610e52565b5060408201518160020190816104469190610e52565b50606082015181600301908161045c9190610e52565b506080820151816004015560a08201518160050160006101000a81548173ffffffffffffffffffffffffffffffffffffffff021916908373ffffffffffffffffffffffffffffffffffffffff16021790555060c0820151816006015560e08201518160070160006101000a81548160ff0219169083151502179055506101008201518160070160016101000a81548173ffffffffffffffffffffffffffffffffffffffff021916908373ffffffffffffffffffffffffffffffffffffffff1602179055509050507f71ec34891b539684f9d6a8e102eaab1a9aebc42e3c7a517ed2a3e911f2695044600154868460405161055893929190610f24565b60405180910390a15050505050565b60008060008381526020019081526020016000209050806006015442106105c3576040517f08c379a00000000000000000000000000000000000000000000000000000000081526004016105ba90610fae565b60405180910390fd5b80600401543411610609576040517f08c379a00000000000000000000000000000000000000000000000000000000081526004016106009061101a565b60405180910390fd5b600073ffffffffffffffffffffffffffffffffffffffff168160050160009054906101000a900473ffffffffffffffffffffffffffffffffffffffff1673ffffffffffffffffffffffffffffffffffffffff16146106d1578060050160009054906101000a900473ffffffffffffffffffffffffffffffffffffffff1673ffffffffffffffffffffffffffffffffffffffff166108fc82600401549081150290604051600060405180830381858888f193505050501580156106cf573d6000803e3d6000fd5b505b348160040181905550338160050160006101000a81548173ffffffffffffffffffffffffffffffffffffffff021916908373ffffffffffffffffffffffffffffffffffffffff1602179055507fcde18333b910a25ba5421e992ecee5c314e557346e94ab2ab424658bbb3707e682333442604051610752949392919061105b565b60405180910390a15050565b6000600154905090565b6000819050919050565b61077b81610768565b82525050565b60006020820190506107966000830184610772565b92915050565b6000604051905090565b600080fd5b600080fd5b6107b981610768565b81146107c457600080fd5b50565b6000813590506107d6816107b0565b92915050565b6000602082840312156107f2576107f16107a6565b5b6000610800848285016107c7565b91505092915050565b600081519050919050565b600082825260208201905092915050565b60005b83811015610843578082015181840152602081019050610828565b60008484015250505050565b6000601f19601f8301169050919050565b600061086b82610809565b6108758185610814565b9350610885818560208601610825565b61088e8161084f565b840191505092915050565b600073ffffffffffffffffffffffffffffffffffffffff82169050919050565b60006108c482610899565b9050919050565b6108d4816108b9565b82525050565b60008115159050919050565b6108ef816108da565b82525050565b60006101208201905061090b600083018c610772565b818103602083015261091d818b610860565b90508181036040830152610931818a610860565b905081810360608301526109458189610860565b90506109546080830188610772565b61096160a08301876108cb565b61096e60c0830186610772565b61097b60e08301856108e6565b6109896101008301846108cb565b9a9950505050505050505050565b600080fd5b600080fd5b7f4e487b7100000000000000000000000000000000000000000000000000000000600052604160045260246000fd5b6109d98261084f565b810181811067ffffffffffffffff821117156109f8576109f76109a1565b5b80604052505050565b6000610a0b61079c565b9050610a1782826109d0565b919050565b600067ffffffffffffffff821115610a3757610a366109a1565b5b610a408261084f565b9050602081019050919050565b82818337600083830152505050565b6000610a6f610a6a84610a1c565b610a01565b905082815260208101848484011115610a8b57610a8a61099c565b5b610a96848285610a4d565b509392505050565b600082601f830112610ab357610ab2610997565b5b8135610ac3848260208601610a5c565b91505092915050565b600080600080600060a08688031215610ae857610ae76107a6565b5b600086013567ffffffffffffffff811115610b0657610b056107ab565b5b610b1288828901610a9e565b955050602086013567ffffffffffffffff811115610b3357610b326107ab565b5b610b3f88828901610a9e565b945050604086013567ffffffffffffffff811115610b6057610b5f6107ab565b5b610b6c88828901610a9e565b9350506060610b7d888289016107c7565b9250506080610b8e888289016107c7565b9150509295509295909350565b7f4e487b7100000000000000000000000000000000000000000000000000000000600052602260045260246000fd5b60006002820490506001821680610be257607f821691505b602082108103610bf557610bf4610b9b565b5b50919050565b7f4e487b7100000000000000000000000000000000000000000000000000000000600052601160045260246000fd5b6000610c3582610768565b91507fffffffffffffffffffffffffffffffffffffffffffffffffffffffffffffffff8203610c6757610c66610bfb565b5b600182019050919050565b6000610c7d82610768565b9150610c8883610768565b9250828201905080821115610ca057610c9f610bfb565b5b92915050565b60008190508160005260206000209050919050565b60006020601f8301049050919050565b600082821b905092915050565b600060088302610d087fffffffffffffffffffffffffffffffffffffffffffffffffffffffffffffffff82610ccb565b610d128683610ccb565b95508019841693508086168417925050509392505050565b6000819050919050565b6000610d4f610d4a610d4584610768565b610d2a565b610768565b9050919050565b6000819050919050565b610d6983610d34565b610d7d610d7582610d56565b848454610cd8565b825550505050565b600090565b610d92610d85565b610d9d818484610d60565b505050565b5b81811015610dc157610db6600082610d8a565b600181019050610da3565b5050565b601f821115610e0657610dd781610ca6565b610de084610cbb565b81016020851015610def578190505b610e03610dfb85610cbb565b830182610da2565b50505b505050565b600082821c905092915050565b6000610e2960001984600802610e0b565b1980831691505092915050565b6000610e428383610e18565b9150826002028217905092915050565b610e5b82610809565b67ffffffffffffffff811115610e7457610e736109a1565b5b610e7e8254610bca565b610e89828285610dc5565b600060209050601f831160018114610ebc5760008415610eaa578287015190505b610eb48582610e36565b865550610f1c565b601f198416610eca86610ca6565b60005b82811015610ef257848901518255600182019150602085019450602081019050610ecd565b86831015610f0f5784890151610f0b601f891682610e18565b8355505b6001600288020188555050505b505050505050565b6000606082019050610f396000830186610772565b8181036020830152610f4b8185610860565b9050610f5a6040830184610772565b949350505050565b7f506869656e2064617520676961206461206b6574207468756300000000000000600082015250565b6000610f98601983610814565b9150610fa382610f62565b602082019050919050565b60006020820190508181036000830152610fc781610f8b565b9050919050565b7f47696120706861692063616f20686f6e20676961206869656e20746169000000600082015250565b6000611004601d83610814565b915061100f82610fce565b602082019050919050565b6000602082019050818103600083015261103381610ff7565b9050919050565b600061104582610899565b9050919050565b6110558161103a565b82525050565b60006080820190506110706000830187610772565b61107d602083018661104c565b61108a6040830185610772565b6110976060830184610772565b9594505050505056fea26469706673582212203aaaf47033cf1d13b120174c9c748dab81fd7d481341bfa8023c5a8b0905785d64736f6c63430008150033",
  "immutableReferences": {},
  "source": "// SPDX-License-Identifier: MIT\r\npragma solidity ^0.8.0;\r\n\r\ncontract AuctionSystem {\r\n    \r\n    struct Auction {\r\n        uint id;\r\n        string title;\r\n        string description;\r\n        string imageUrl;\r\n        uint currentBid; // Tnh bng Wei (n v nh nht ca ETH)\r\n        address payable highestBidder;\r\n        uint endTime;\r\n        bool ended;\r\n        address payable creator;\r\n    }\r\n\r\n    // Lu danh sch u gi\r\n    mapping(uint => Auction) public auctions;\r\n    uint public auctionCount;\r\n\r\n    // S kin  lu lch s (Log History)\r\n    event NewBid(uint auctionId, address bidder, uint amount, uint time);\r\n    event AuctionCreated(uint auctionId, string title, uint startPrice);\r\n\r\n    // 1. To sn phm u gi mi\r\n    function createAuction(\r\n        string memory _title, \r\n        string memory _description, \r\n        string memory _imageUrl, \r\n        uint _startPrice, \r\n        uint _durationInSeconds\r\n    ) public {\r\n        auctionCount++;\r\n        \r\n        auctions[auctionCount] = Auction(\r\n            auctionCount,\r\n            _title,\r\n            _description,\r\n            _imageUrl,\r\n            _startPrice, // Gi khi im\r\n            payable(address(0)), // Cha c ngi thng\r\n            block.timestamp + _durationInSeconds,\r\n            false,\r\n            payable(msg.sender)\r\n        );\r\n\r\n        emit AuctionCreated(auctionCount, _title, _startPrice);\r\n    }\r\n\r\n    // 2. u gi (Bid) - Thay th hm placeBid bn Node.js\r\n    function placeBid(uint _auctionId) public payable {\r\n        Auction storage item = auctions[_auctionId];\r\n\r\n        require(block.timestamp < item.endTime, \"Phien dau gia da ket thuc\");\r\n        require(msg.value > item.currentBid, \"Gia phai cao hon gia hien tai\");\r\n\r\n        // Tr li tin cho ngi thng c (nu c)\r\n        if (item.highestBidder != address(0)) {\r\n            item.highestBidder.transfer(item.currentBid);\r\n        }\r\n\r\n        // Cp nht ngi thng mi\r\n        item.currentBid = msg.value;\r\n        item.highestBidder = payable(msg.sender);\r\n\r\n        // Lu log lch s ln Blockchain\r\n        emit NewBid(_auctionId, msg.sender, msg.value, block.timestamp);\r\n    }\r\n\r\n    // 3. Ly tng s lng (Frontend s dng  loop ly danh sch)\r\n    function getCount() public view returns (uint) {\r\n        return auctionCount;\r\n    }\r\n}",
  "sourcePath": "C:\\blockchain\\smart_contract\\contracts\\AuctionSystem.sol",
  "compiler": {
    "name": "solc",
    "version": "0.8.21+commit.d9974bed.Emscripten.clang"
  },
  "schemaVersion": "3.4.16",
  "updatedAt": "2025-11-24T08:26:34.292Z",
  "networkType": "ethereum",
  "devdoc": {
    "kind": "dev",
    "methods": {},
    "version": 1
  },
  "userdoc": {
    "kind": "user",
    "methods": {},
    "version": 1
  }
}